:020000040800F2
:1000000000500020ED1B00082D1A0008331A0008CC
:10001000391A00083F1A0008451A000800000000BD
:100020000000000000000000000000004B1A000863
:10003000571A000800000000631A00086F1A000831
:10004000351C0008351C0008351C0008351C00084C
:10005000351C0008351C0008351C0008351C00083C
:10006000351C0008351C0008351C0008351C00082C
:10007000351C0008351C0008351C0008351C00081C
:10008000351C0008351C0008351C0008351C00080C
:10009000351C0008351C0008351C0008351C0008FC
:1000A000351C0008351C0008351C0008351C0008EC
:1000B0007D1A0008351C0008351C0008351C000896
:1000C000351C0008351C0008351C0008351C0008CC
:1000D000351C0008351C0008351C0008351C0008BC
:1000E000911A0008351C0008351C000800000000AB
:1000F0000000000000000000000000000000000000
:0C01000000000000000000005FF808F1A3
:10010C0010B5054C237833B9044B13B10448AFF345
:10011C0000800123237010BD680000200000000047
:10012C00485E000808B5034B1BB103490348AFF305
:10013C00008008BD000000006C000020485E000834
:10014C0070B54FF0FF0C4CF4E06C1CEA11541DBF61
:10015C001CEA135594EA0C0F95EA0C0F00F0DEF82C
:10016C002C4481EA030621EA4C5123EA4C5350EA11
:10017C00013518BF52EA033541F4801143F4801362
:10018C0038D0A0FB02CE4FF00005E1FB02E506F0F3
:10019C000042E0FB03E54FF00006E1FB03569CF048
:1001AC00000F18BF4EF0010EA4F1FF04B6F5007F4E
:1001BC0064F5407404D25FEA4E0E6D4146EB0606C0
:1001CC0042EAC62141EA55514FEAC52040EA5E5049
:1001DC004FEACE2EB4F1FD0C88BFBCF5E06F1ED8F3
:1001EC00BEF1004F08BF5FEA500E50F1000041EB2A
:1001FC00045170BD06F0004646EA010140EA0200D7
:10020C0081EA0301B4EB5C04C2BFD4EB0C0541EAF8
:10021C00045170BD41F480114FF0000E013C00F30D
:10022C00AB8014F1360FDEBF002001F0004170BD31
:10023C00C4F10004203C35DA0C341BDC04F114044A
:10024C00C4F1200500FA05F320FA04F001FA05F2D6
:10025C0040EA020001F0004221F0004110EBD370A3
:10026C0021FA04F642EB06015EEA430E08BF20EACF
:10027C00D37070BDC4F10C04C4F1200500FA04F372
:10028C0020FA05F001FA04F240EA020001F0004104
:10029C0010EBD37041F100015EEA430E08BF20EA77
:1002AC00D37070BDC4F1200500FA05F24EEA020EBF
:1002BC0020FA04F301FA05F243EA020321FA04F0EE
:1002CC0001F0004121FA04F220EA020000EBD370A5
:1002DC005EEA430E08BF20EAD37070BD94F0000FA5
:1002EC000FD101F00046400041EB010111F4801FD9
:1002FC0008BF013CF7D041EA060195F0000F18BF8A
:10030C00704703F00046520043EB030313F4801FC5
:10031C0008BF013DF7D043EA0603704794EA0C0F7F
:10032C000CEA135518BF95EA0C0F0CD050EA410695
:10033C0018BF52EA4306D1D181EA030101F0004112
:10034C004FF0000070BD50EA410606BF104619463A
:10035C0052EA430619D094EA0C0F02D150EA013646
:10036C0013D195EA0C0F05D152EA03361CBF104687
:10037C0019460AD181EA030101F0004141F0FE4126
:10038C0041F470014FF0000070BD41F0FE4141F4AA
:10039C00780170BD81F0004102E000BF83F00043A2
:1003AC0030B54FEA41044FEA430594EA050F08BF04
:1003BC0090EA020F1FBF54EA000C55EA020C7FEAC8
:1003CC00645C7FEA655C00F0E2804FEA5454D4EB45
:1003DC005555B8BF6D420CDD2C4480EA020281EA0F
:1003EC00030382EA000083EA010180EA020281EA47
:1003FC000303362D88BF30BD11F0004F4FEA013199
:10040C004FF4801C4CEA113102D0404261EB4101A7
:10041C0013F0004F4FEA03334CEA133302D052422D
:10042C0063EB430394EA050F00F0A780A4F10104E9
:10043C00D5F1200E0DDB02FA0EFC22FA05F2801823
:10044C0041F1000103FA0EF2801843FA05F3594109
:10045C000EE0A5F120050EF1200E012A03FA0EFC88
:10046C0028BF4CF0020C43FA05F3C01851EBE371B2
:10047C0001F0004507D54FF0000EDCF1000C7EEBCF
:10048C0000006EEB0101B1F5801F1BD3B1F5001F0D
:10049C000CD349085FEA30004FEA3C0C04F101042C
:1004AC004FEA445212F5800F80F09A80BCF1004F55
:1004BC0008BF5FEA500C50F1000041EB045141EAD7
:1004CC00050130BD5FEA4C0C404141EB0101013CA0
:1004DC0028BFB1F5801FE9D291F0000F04BF01468F
:1004EC000020B1FA81F308BF2033A3F10B03B3F161
:1004FC0020020CDA0C3208DD02F1140CC2F10C02F1
:10050C0001FA0CF021FA02F10CE002F11402D8BF4E
:10051C00C2F1200C01FA02F120FA0CFCDCBF41EA1A
:10052C000C019040E41AA2BF01EB0451294330BDE9
:10053C006FEA04041F3C1CDA0C340EDC04F11404C6
:10054C00C4F1200220FA04F001FA02F340EA03009D
:10055C0021FA04F345EA030130BDC4F10C04C4F1E3
:10056C00200220FA02F001FA04F340EA03002946C3
:10057C0030BD21FA04F0294630BD94F0000F83F40D
:10058C00801306BF81F480110134013D4EE77FEAF0
:10059C00645C18BF7FEA655C29D094EA050F08BF3C
:1005AC0090EA020F05D054EA000C04BF194610461D
:1005BC0030BD91EA030F1EBF0021002030BD5FEA61
:1005CC00545C05D14000494128BF41F0004130BD89
:1005DC0014F580043CBF01F5801130BD01F00045DD
:1005EC0045F0FE4141F470014FF0000030BD7FEA50
:1005FC00645C1ABF194610467FEA655C1CBF0B464B
:10060C00024650EA013406BF52EA033591EA030F61
:10061C0041F4002130BD00BF90F0000F04BF002159
:10062C00704730B54FF4806404F132044FF000058C
:10063C004FF0000150E700BF90F0000F04BF002105
:10064C00704730B54FF4806404F1320410F000456B
:10065C0048BF40424FF000013EE700BF42004FEA66
:10066C00E2014FEA31014FEA02701FBF12F07F43E3
:10067C0093F07F4F81F06051704732F07F4208BF9A
:10068C00704793F07F4F04BF41F40021704730B5A1
:10069C004FF4607401F0004521F000411CE700BFED
:1006AC0050EA010208BF704730B54FF000050AE070
:1006BC0050EA010208BF704730B511F0004502D571
:1006CC00404261EB41014FF4806404F132045FEA73
:1006DC00915C3FF4D8AE4FF003025FEADC0C18BF1C
:1006EC0003325FEADC0C18BF033202EBDC02C2F10E
:1006FC00200300FA03FC20FA02F001FA03FE40EAA0
:10070C000E0021FA02F11444BDE600BF4FEA41028B
:10071C00B2F1E04324BFB3F5001CDCF1FE5C0DD953
:10072C0001F0004C4FEAC0024CEA5070B2F1004F9D
:10073C0040EB830008BF20F00100704711F0804FA0
:10074C0021D113F13872BCBF01F00040704741F465
:10075C0080114FEA5252C2F11802C2F1200C10FA69
:10076C000CF320FA02F018BF40F001004FEAC1234D
:10077C004FEAD32303FA0CFC40EA0C0023FA02F3F1
:10078C004FEA4303CCE77FEA625307D150EA0133C7
:10079C001EBF4FF0FE4040F44000704701F0004097
:1007AC0040F0FE4040F40000704700BF80F0004075
:1007BC0002E000BF81F0004142001FBF5FEA41032D
:1007CC0092EA030F7FEA226C7FEA236C6AD04FEA2D
:1007DC001262D2EB1363C1BFD21841404840414072
:1007EC00B8BF5B42192B88BF704710F0004F40F424
:1007FC00000020F07F4018BF404211F0004F41F440
:10080C00000121F07F4118BF494292EA030F3FD00B
:10081C00A2F1010241FA03FC10EB0C00C3F120031E
:10082C0001FA03F100F0004302D5494260EB4000AD
:10083C00B0F5000F13D3B0F1807F06D340084FEA18
:10084C00310102F10102FE2A51D2B1F1004F40EB0D
:10085C00C25008BF20F0010040EA03007047490075
:10086C0040EB0000013A28BFB0F5000FEDD2B0FA12
:10087C0080FCACF1080CB2EB0C0200FA0CF0AABF35
:10088C0000EBC25052421843BCBFD04018437047D3
:10089C0092F0000F81F4000106BF80F400000132D9
:1008AC00013BB5E74FEA41037FEA226C18BF7FEAB0
:1008BC00236C21D092EA030F04D092F0000F08BFF2
:1008CC000846704790EA010F1CBF0020704712F0D9
:1008DC007F4F04D1400028BF40F00040704712F118
:1008EC0000723CBF00F50000704700F0004343F07D
:1008FC00FE4040F4000070477FEA226216BF0846B3
:10090C007FEA23630146420206BF5FEA412390EA75
:10091C00010F40F4800070474FF0000304E000BF6B
:10092C0010F0004348BF40425FEA000C08BF70471C
:10093C0043F0964301464FF000001CE050EA0102E0
:10094C0008BF70474FF000030AE000BF50EA0102F5
:10095C0008BF704711F0004302D5404261EB4101E2
:10096C005FEA010C02BF84460146002043F0B64307
:10097C0008BFA3F18053A3F50003BCFA8CF2083A2C
:10098C00A3EBC25310DB01FA02FC634400FA02FC35
:10099C00C2F12002BCF1004F20FA02F243EB02003C
:1009AC0008BF20F00100704702F1200201FA02FC9E
:1009BC00C2F1200250EA4C0021FA02F243EB020091
:1009CC0008BF20EADC7070474FF0FF0C1CEAD052D5
:1009DC001EBF1CEAD15392EA0C0F93EA0C0F6FD096
:1009EC001A4480EA010C400218BF5FEA41211ED074
:1009FC004FF0006343EA501043EA5111A0FB013160
:100A0C000CF00040B1F5000F3EBF490041EAD37134
:100A1C005B0040EA010062F17F02FD2A1DD8B3F1B0
:100A2C00004F40EBC25008BF20F00100704790F01F
:100A3C00000F0CF0004C08BF49024CEA502040EA71
:100A4C0051207F3AC2BFD2F1FF0340EAC250704737
:100A5C0040F400004FF00003013A5DDC12F1190F75
:100A6C00DCBF00F000407047C2F10002410021FAE7
:100A7C0002F1C2F1200200FA02FC5FEA310040F1FF
:100A8C00000053EA4C0308BF20EADC70704792F078
:100A9C00000F00F0004C02BF400010F4000F013AB0
:100AAC00F9D040EA0C0093F0000F01F0004C02BFAB
:100ABC00490011F4000F013BF9D041EA0C018FE71A
:100ACC000CEAD15392EA0C0F18BF93EA0C0F0AD020
:100ADC0030F0004C18BF31F0004CD8D180EA010046
:100AEC0000F00040704790F0000F17BF90F0004FDF
:100AFC00084691F0000F91F0004F14D092EA0C0FC1
:100B0C0001D142020FD193EA0C0F03D14B0218BF53
:100B1C00084608D180EA010000F0004040F0FE4099
:100B2C0040F40000704740F0FE4040F44000704735
:100B3C004FF0FF0C1CEAD0521EBF1CEAD15392EAB4
:100B4C000C0F93EA0C0F69D0A2EB030280EA010CA4
:100B5C0049024FEA402037D04FF0805343EA11113D
:100B6C0043EA10130CF000408B4238BF5B0042F19B
:100B7C007D024FF4000C8B4224BF5B1A40EA0C0040
:100B8C00B3EB510F24BFA3EB510340EA5C00B3EB72
:100B9C00910F24BFA3EB910340EA9C00B3EBD10F60
:100BAC0024BFA3EBD10340EADC001B0118BF5FEAB2
:100BBC001C1CE0D1FD2A3FF650AF8B4240EBC250DB
:100BCC0008BF20F0010070470CF0004C4CEA50209C
:100BDC007F32C2BFD2F1FF0340EAC250704740F4EB
:100BEC0000004FF00003013A37E792F0000F00F0DD
:100BFC00004C02BF400010F4000F013AF9D040EA5B
:100C0C000C0093F0000F01F0004C02BF490011F4EE
:100C1C00000F013BF9D041EA0C0195E70CEAD153E6
:100C2C0092EA0C0F08D142027FF47DAF93EA0C0FCD
:100C3C007FF470AF084676E793EA0C0F04D14B02B1
:100C4C003FF44CAF08466EE730F0004C18BF31F063
:100C5C00004CCAD130F000427FF45CAF31F000435D
:100C6C007FF43CAF5FE700BF80B485B000AFF860A5
:100C7C00B9607A603B60FB69FA681A60FB69BA6814
:100C8C005A60FB697A689A60FB693A68DA60FB69BA
:100C9C00BA691A61002318461437BD4680BC7047E8
:100CAC0080B582B000AF78600B46FB701346BB700A
:100CBC00FB7803F00103002B0CBF01230023DBB2F4
:100CCC001A46FB785340FB70FB7823F00203FB7051
:100CDC00FB789BB21A461821786800F0C8F8BB78EC
:100CEC009BB21A461921786800F0C1F800BF08378A
:100CFC00BD4680BD80B586B000AFF8600B467A600B
:100D0C00FB72FB7A002B03D043F6FF73FB8202E0ED
:100D1C0043F6FE73FB82FB8A1946F86800F0D5F89F
:100D2C000346BB82BB8A9B0B9BB203F00103002BD7
:100D3C0007D1BB8AC3F30D039AB27B681A800023D8
:100D4C0001E04FF0FF3318461837BD4680BD000058
:100D5C0080B586B000AFF8600B467A60FB7207F185
:100D6C001402FB7A1946F868FFF7C4FF0346FB75BB
:100D7C0097F91730002B11D1BB8A1846FFF75CFC92
:100D8C004FF00002084BFFF7DBF902460B4610460A
:100D9C001946FFF7BBFC02467B681A6097F91730BF
:100DAC0018461837BD4680BD0080963F80B582B08E
:100DBC0000AF78600B467B807B889B099BB2DBB2D3
:100DCC009BB21A461621786800F051F87B8803F024
:100DDC003F039BB21A461721786800F048F87868F0
:100DEC0000F004F800BF0837BD4680BD80B582B066
:100DFC0000AF786001220021786800F004F800BF91
:100E0C000837BD4680BD80B584B000AF78600B4616
:100E1C007B8013467B707B88C3F30D03FB817B784F
:100E2C009BB25B429BB21AB2B7F90E3053401BB265
:100E3C009BB203F480439AB2FB895340FB81FB893C
:100E4C00184600F085F80346002B07D1FB8983F088
:100E5C007F4383F47F0383F40043FB81FB891946B2
:100E6C00786800F046F800BF1037BD4680BD80B5ED
:100E7C0084B000AF78600B467B8013463B803B8888
:100E8C00C3F30D03FB81FB8923F48043FB81FB89B6
:100E9C00184600F05DF80346002B07D1FB8983F060
:100EAC007F4383F47F0383F40043FB817B88002220
:100EBC0019467868FFF7A7FFFB891946786800F098
:100ECC0018F800BF1037BD4680BD80B582B000AFAA
:100EDC0078600B467B807B88012219467868FFF787
:100EEC0092FF786800F01DF8034618460837BD4697
:100EFC0080BD80B582B000AF78600B467B807B688C
:100F0C001B6998477B689B6898477B681B687A8845
:100F1C00104698477B68DB68984700BF0837BD468A
:100F2C0080BD80B584B000AF78607B681B69984742
:100F3C007B689B6898477B685B6898470346FB8196
:100F4C007B68DB689847FB8918461037BD4680BD27
:100F5C0080B485B000AF0346FB800123FB730CE02B
:100F6C00FA88FB7B42FA03F31AB2B7F90630534006
:100F7C001BB2FB80FB7B5B00FB73FB7B0F2BEFD966
:100F8C00FB8803F00103002B0CBF01230023DBB211
:100F9C0018461437BD4680BC7047000080B586B03B
:100FAC0000AF78607B681B7F012B5CD1304B1B68DA
:100FBC00002B0AD10021786803F038F903462D4A3A
:100FCC0013602B4B01221A604DE00021786803F06E
:100FDC002DF90346284A1360274B1A68254B1B68CA
:100FEC009A4207D9244B1A68224B1B68D31A234AFE
:100FFC0013600FE01F4B1A681F4B1B689A4209D9EC
:10100C001D4B1A681B4B1B68D31A03F57F43FF3328
:10101C001A4A136001F0A0FC03461846FFF77CFC4B
:10102C0003467B6179691648FFF782FD03463B61F5
:10103C00124B1B681846FFF76FFC034619463869BC
:10104C00FFF7C2FC0346FB60F868FFF707FB02469C
:10105C000B460C4804F01AF87B681B6800225A6295
:10106C00034B00221A6000BF1837BD4680BD00BF7D
:10107C00C0010020B4010020B8010020BC010020F8
:10108C0000247449605E000880B582B000AF03464E
:10109C00FB80C7F800C0B91D4FF0FF330122034895
:1010AC0001F024FD00BF0837BD4680BD8400002040
:1010BC00F0B5A1B002AF07F190033B6707F1200335
:1010CC0003F1400407F12005654B26460FCB86E85B
:1010DC000F00A560634BE36007F1200303F13004BC
:1010EC0007F120055E4B26460FCB86E80F00A56066
:1010FC005D4BE36007F1200303F1200407F12005A9
:10110C00574B26460FCB86E80F00A560574BE36084
:10111C0007F1200303F1100407F12005504B26467C
:10112C000FCB86E80F00A560514BE36007F120045C
:10113C0007F120054A4B26460FCB86E80F00A56029
:10114C004C4BE36003F05AFE00F0E6F800F0B0FA06
:10115C0000F084FA00F026F900F05AF900F004FAD5
:10116C00454B42F20F725A63434B42F20F729A6331
:10117C000021424802F026FB0421404802F022FBE9
:10118C0000213F4802F018FC04213D4802F014FCF9
:10119C003C4803F0E1FF07F12003403343F0010327
:1011AC00184607F12003303343F00103194607F1C9
:1011BC002003203343F001031C4607F120031033B6
:1011CC0043F001031D4607F1200343F001031A46C7
:1011DC0007F10C03019300922B462246FFF744FDC6
:1011EC0007F10C03002225211846FFF759FD07F1E2
:1011FC000C0300211846FFF7D9FD234803F0ACFF80
:10120C00642003F05DFE07F1080207F10C030121D5
:10121C001846FFF79DFD034687F8773097F977302E
:10122C00002B08D1BB681846FFF718FA02460B468C
:10123C00164803F02BFFBA1D07F10C0300211846CA
:10124C00FFF758FD034687F8773097F97730002B76
:10125C00D6D1FB8819460E4803F018FFD0E700BF23
:10126C007C5E000895100008A1120008CD12000841
:10127C00ED1200080D130008002C0140DC000020CA
:10128C00240100208C5E0008E45E0008FC5E00086F
:10129C00085F000880B584B000AFC7F804C0002315
:1012AC00FB8107F10E014FF0FF330122034801F0DF
:1012BC0060FDFB8918461037BD4680BD84000020B8
:1012CC0080B582B000AFC7F804C0002210210348DB
:1012DC0000F03EFF00BF0837BD4680BD000801404E
:1012EC0080B582B000AFC7F804C0012210210348BA
:1012FC0000F02EFF00BF0837BD4680BD000801403E
:10130C0080B582B000AFC7F804C0012003F0D8FD4F
:10131C0000BF0837BD4680BD80B590B000AF07F167
:10132C00180328220021184603F0F6FF3B1D00226B
:10133C001A605A609A60DA601A610123BB614FF43B
:10134C00A023FB6100233B620123BB6202237B636E
:10135C004FF48033BB634FF4E013FB6307F11803C6
:10136C00184600F02FFF0346002B01D000F000FAC6
:10137C000F237B600223BB600023FB604FF4806370
:10138C003B6100237B613B1D0221184601F09CF957
:10139C000346002B01D000F0EBF900BF4037BD46EF
:1013AC0080BD000080B500AF174B184A1A60164B71
:1013BC004FF482725A60144B00229A60124B002236
:1013CC00DA60114B00221A610F4B01225A610E4B4D
:1013DC004FF480229A610C4B3022DA610A4B0022C6
:1013EC001A62094B00225A62074B00229A62064B82
:1013FC000A22DA62044801F0F5FA0346002B01D008
:10140C0000F0B6F900BF80BD840000200030014020
:10141C0080B596B000AF07F1480300221A605A60FD
:10142C009A60DA6007F1400300221A605A6007F1F3
:10143C00240300221A605A609A60DA601A615A61B9
:10144C009A613B1D20220021184603F065FF444B96
:10145C00444A1A60424B47225A60414B00229A6020
:10146C003F4B44F61F62DA603D4B00221A613C4B45
:10147C0000225A613A4B00229A61394802F0FBF87B
:10148C000346002B01D000F073F94FF48053BB647A
:10149C0007F148031946324802F000FE0346002BC0
:1014AC0001D000F065F92E4802F034F90346002B08
:1014BC0001D000F05DF900233B6400237B6407F14D
:1014CC0040031946264802F015F80346002B01D0BC
:1014DC0000F04EF960237B620023BB620023FB62A9
:1014EC0000233B6300237B630023BB630023FB636C
:1014FC0007F1240300221946194802F00DFD03469A
:10150C00002B01D000F034F907F124030422194612
:10151C00134802F001FD0346002B01D000F028F91E
:10152C0000237B600023BB600023FB6000233B6136
:10153C0000237B614FF40053BB6100233B623B1DD6
:10154C001946074802F034F80346002B01D000F08E
:10155C000FF9034800F0F2F900BF5837BD4680BDC3
:10156C00DC000020002C014080B58AB000AF07F1F0
:10157C00180300221A605A609A60DA6007F11003AF
:10158C0000221A605A603B4600221A605A609A6028
:10159C00DA60314B4FF080421A602F4B47225A6071
:1015AC002D4B00229A602C4B4FF6FF72DA602A4BBF
:1015BC0000221A61284B00229A61274802F05BF83E
:1015CC000346002B01D000F0D3F84FF48053BB61DD
:1015DC0007F118031946204802F060FD0346002B62
:1015EC0001D000F0C5F81C4802F08EF90346002B20
:1015FC0001D000F0BDF800233B6100237B6107F1B3
:10160C0010031946144801F075FF0346002B01D056
:10161C0000F0AEF800233B6001237B600023BB602D
:10162C000023FB603B46002219460B4802F0D8FB16
:10163C000346002B01D000F09BF83B4604221946D0
:10164C00054802F0CDFB0346002B01D000F090F8CA
:10165C0000BF2837BD4680BD2401002080B500AFF7
:10166C00114B124A1A60104B4FF4E1325A600E4B78
:10167C0000229A600C4B0022DA600B4B00221A619C
:10168C00094B0C225A61084B00229A61064B00222E
:10169C00DA61054803F0E3F90346002B01D000F0B2
:1016AC0067F800BF80BD00BF6C0100200044004003
:1016BC0080B588B000AF07F1100300221A605A60A1
:1016CC009A60DA601E4B9B691D4A43F010039361CC
:1016DC001B4B9B6903F01003FB60FB68184B9B6969
:1016EC00174A43F020039361154B9B6903F02003C9
:1016FC00BB60BB68124B9B69114A43F004039361B6
:10170C000F4B9B6903F004037B607B684FF4005321
:10171C003B610C4B7B610023BB6107F11003194645
:10172C00094800F091FB00220021282000F055FB15
:10173C00282000F06EFB00BF2037BD4680BD00BFE7
:10174C0000100240000011100010014080B582B062
:10175C0000AF7860391D4FF6FF730122034803F088
:10176C00CEF97B6818460837BD4680BD6C01002059
:10177C0080B400AF72B600BFFEE7000080B485B045
:10178C0000AF154B9B69144A43F001039361124B54
:10179C009B6903F00103BB60BB680F4BDB690E4A0E
:1017AC0043F08053D3610C4BDB6903F080537B60B7
:1017BC007B680A4B5B68FB60FB6823F0E063FB60B3
:1017CC00FB6843F00073FB60044AFB68536000BF86
:1017DC001437BD4680BC7047001002400000014029
:1017EC0080B588B000AF786007F1100300221A6052
:1017FC005A609A60DA607B681B681B4A93422FD14F
:10180C001A4B9B69194A43F480539361174B9B699C
:10181C0003F48053FB60FB68144B9B69134A43F041
:10182C0004039361114B9B6903F00403BB60BB6819
:10183C00B0233B6102237B610323FB6107F110039F
:10184C0019460B4800F000FB40233B6100237B61F1
:10185C000023BB6107F110031946054800F0F4FAA8
:10186C0000BF2037BD4680BD003001400010024053
:10187C000008014080B58AB000AF786007F118030A
:10188C0000221A605A609A60DA607B681B68284AEA
:10189C0093420CD1274B9B69264A43F40063936116
:1018AC00244B9B6903F400637B617B693CE07B68A0
:1018BC001B68B3F1804F37D11E4BDB691D4A43F0D7
:1018CC000103D3611B4BDB6903F001033B613B69F3
:1018DC00184B9B69174A43F004039361154B9B69A2
:1018EC0003F00403FB60FB680123BB610023FB6175
:1018FC0002233B6207F1180319460F4800F0A4FAC3
:10190C000223BB610023FB6100233B6207F1180338
:10191C001946094800F098FA002200211C2000F01A
:10192C005CFA1C2000F075FA00BF2837BD4680BD5C
:10193C00002C0140001002400008014080B588B026
:10194C0000AF786007F1100300221A605A609A60A9
:10195C00DA607B681B68104A934218D10F4B9B6965
:10196C000E4A43F0040393610C4B9B6903F0040390
:10197C00FB60FB684FF440733B6102237B610223E5
:10198C00FB6107F110031946054800F05DFA00BF32
:10199C002037BD4680BD00BF002C01400010024026
:1019AC000008014080B588B000AF786007F11003E3
:1019BC0000221A605A609A60DA607B681B68154ACC
:1019CC00934223D1144BDB69134A43F40033D361A4
:1019DC00114BDB6903F40033FB60FB680E4B9B6916
:1019EC000D4A43F0040393610B4B9B6903F0040312
:1019FC00BB60BB680C233B6102237B610223FB6150
:101A0C0007F110031946054800F01EFA00BF2037F5
:101A1C00BD4680BD0044004000100240000801405B
:101A2C0080B400AFFEE780B400AFFEE780B400AF37
:101A3C00FEE780B400AFFEE780B400AFFEE780B4F1
:101A4C0000AF00BFBD4680BC704780B400AF00BF84
:101A5C00BD4680BC704780B400AF00BFBD4680BCA3
:101A6C00704780B500AF03F00FFA00BF80BD0000D7
:101A7C0080B500AF024802F0ABF800BF80BD00BFDC
:101A8C002401002080B500AF4FF4005000F078FB2B
:101A9C0000BF80BD80B586B000AFF860B9607A60D9
:101AAC0000237B610AE0AFF300800146BB685A1C3F
:101ABC00BA60CAB21A707B6901337B617A697B6840
:101ACC009A42F0DB7B6818461837BD4680BD80B55E
:101ADC0086B000AFF860B9607A6000237B6109E0E2
:101AEC00BB685A1CBA601B781846FFF72FFE7B693F
:101AFC0001337B617A697B689A42F1DB7B6818461B
:101B0C001837BD4680BD80B483B000AF78604FF00D
:101B1C00FF3318460C37BD4680BC704780B483B089
:101B2C0000AF786039603B684FF400525A60002374
:101B3C0018460C37BD4680BC704780B483B000AFEC
:101B4C007860012318460C37BD4680BC704780B4C2
:101B5C0085B000AFF860B9607A600023184614377E
:101B6C00BD4680BC7047000080B586B000AF786081
:101B7C00144A154BD31A7B617B693B61134B1B6871
:101B8C00002B02D1114B124A1A60104B1A687B6859
:101B9C0013443A699A4207D203F00CFC03460C2218
:101BAC001A604FF0FF3309E0084B1B68FB60074BD2
:101BBC001A687B681344054A1360FB68184618378B
:101BCC00BD4680BD0050002000040000C401002070
:101BDC001803002080B400AF00BFBD4680BC704726
:101BEC00FFF7F8FF0B480C490C4A002302E0D458CD
:101BFC00C4500433C4188C42F9D3094A094C00234D
:101C0C0001E013600432A242FBD303F0D9FBFFF7CF
:101C1C004FFA704700000020680000207C5F00082D
:101C2C006800002018030020FEE7000080B485B097
:101C3C0000AF78607B6803F00703FB600C4BDB683C
:101C4C00BB60BA684FF6FF031340BB60FB681A0217
:101C5C00BB68134343F0BF6343F40033BB60044AD7
:101C6C00BB68D36000BF1437BD4680BC704700BF53
:101C7C0000ED00E080B400AF044BDB681B0A03F0FE
:101C8C0007031846BD4680BC704700BF00ED00E05E
:101C9C0080B483B000AF0346FB7197F90730002B7B
:101CAC000BDBFB7903F01F02064997F907305B0940
:101CBC00012000FA02F241F8232000BF0C37BD4688
:101CCC0080BC704700E100E080B483B000AF0346F5
:101CDC003960FB7197F90730002B0ADB3B68DAB2ED
:101CEC000C4997F907301201D2B20B4483F8002348
:101CFC000AE03B68DAB20849FB7903F00F03043BB6
:101D0C001201D2B20B441A7600BF0C37BD4680BC10
:101D1C00704700BF00E100E000ED00E080B489B046
:101D2C0000AFF860B9607A60FB6803F00703FB61F1
:101D3C00FB69C3F10703042B28BF0423BB61FB69B8
:101D4C000433062B02D9FB69033B00E000237B61C3
:101D5C004FF0FF32BB6902FA03F3DA43BB681A4057
:101D6C007B699A404FF0FF317B6901FA03F3D94349
:101D7C007B680B40134318462437BD4680BC704724
:101D8C0080B582B000AF78607B68013BB3F1807F97
:101D9C0001D301230FE00A4A7B68013B53600F21FA
:101DAC004FF0FF30FFF790FF054B00229A60044B79
:101DBC0007221A60002318460837BD4680BD00BFB5
:101DCC0010E000E080B582B000AF78607868FFF773
:101DDC002DFF00BF0837BD4680BD80B586B000AF73
:101DEC000346B9607A60FB7300237B61FFF742FF07
:101DFC0078617A68B9687869FFF790FF024697F9BD
:101E0C000F3011461846FFF75FFF00BF1837BD466D
:101E1C0080BD80B582B000AF0346FB7197F90730E7
:101E2C001846FFF735FF00BF0837BD4680BD80B5AB
:101E3C0082B000AF78607868FFF7A2FF03461846BF
:101E4C000837BD4680BD000080B48BB000AF786011
:101E5C00396000237B6200233B6269E101227B6ACB
:101E6C0002FA03F3FB613B681B68FA691340BB6120
:101E7C00BA69FB699A4240F058813B685B689A4AA0
:101E8C0093425ED0984A934275D8984A934258D060
:101E9C00964A93426FD8964A934252D0944A9342B0
:101EAC0069D8944A93424CD0924A934263D8924A4E
:101EBC00934246D0904A93425DD8122B2AD8122BCB
:101ECC0059D801A252F823F04F1F0008291F00080F
:101EDC003B1F00087D1F0008831F0008831F00089C
:101EEC00831F0008831F0008831F0008831F00083E
:101EFC00831F0008831F0008831F0008831F00082E
:101F0C00831F0008831F0008831F0008311F00086F
:101F1C00451F0008794A934213D02CE03B68DB68DC
:101F2C003B6229E03B68DB6804333B6224E03B689E
:101F3C00DB6808333B621FE03B68DB680C333B62B9
:101F4C001AE03B689B68002B02D104233B6213E030
:101F5C003B689B68012B05D108233B627B68FA69BF
:101F6C001A6109E008233B627B68FA695A6103E055
:101F7C0000233B6200E000BFBB69FF2B01D87B68EC
:101F8C0001E07B6804337B61BB69FF2B02D87B6A61
:101F9C009B0002E07B6A083B9B003B617B691A68F3
:101FAC000F213B6901FA03F3DB431A40396A3B69A1
:101FBC0001FA03F31A437B691A603B685B6803F010
:101FCC008053002B00F0B1804D4B9B694C4A43F081
:101FDC00010393614A4B9B6903F00103BB60BB682F
:101FEC00484A7B6A9B08023352F82330FB607B6AB9
:101FFC0003F003039B000F2202FA03F3DB43FA689E
:10200C001340FB607B68404A934213D07B683F4A85
:10201C0093420DD07B683E4A934207D07B683D4A81
:10202C00934201D1032306E0042304E0022302E0DF
:10203C00012300E000237A6A02F00302920093402D
:10204C00FA681343FB602F497B6A9B080233FA68DA
:10205C0041F823203B685B6803F48013002B06D007
:10206C002D4B9A682C49BB6913438B6006E02A4BB5
:10207C009A68BB69DB43284913408B603B685B68FB
:10208C0003F40013002B06D0234BDA682249BB69FA
:10209C001343CB6006E0204BDA68BB69DB431E4977
:1020AC001340CB603B685B6803F40033002B06D015
:1020BC00194B5A681849BB6913434B6006E0164B21
:1020CC005A68BB69DB43144913404B603B685B683F
:1020DC0003F48033002B21D00F4B1A680E49BB69D7
:1020EC0013430B6021E000BF0000321000003110E0
:1020FC00000022100000211000001210000011102E
:10210C00001002400000014000080140000C01409A
:10211C000010014000140140000401400B4B1A68F0
:10212C00BB69DB43094913400B607B6A01337B625B
:10213C003B681A687B6A22FA03F3002B7FF48EAE9D
:10214C0000BF00BF2C37BD4680BC70470004014067
:10215C0080B483B000AF78600B467B8013467B70F5
:10216C007B78002B03D07A887B681A6103E07B882C
:10217C001A047B681A6100BF0C37BD4680BC7047DF
:10218C0080B582B000AF0346FB80084B5A69FB88D0
:10219C001340002B06D0054AFB885361FB88184678
:1021AC0000F006F800BF0837BD4680BD00040140B2
:1021BC0080B483B000AF0346FB8000BF0C37BD4634
:1021CC0080BC704780B586B000AF78607B68002B10
:1021DC0001D1012372E27B681B6803F00103002B21
:1021EC0000F08780924B5B6803F00C03042B0CD03F
:1021FC008F4B5B6803F00C03082B12D18C4B5B6884
:10220C0003F48033B3F5803F0BD1894B1B6803F487
:10221C000033002B6CD07B685B68002B68D10123EA
:10222C004CE27B685B68B3F5803F06D1804B1B6842
:10223C007F4A43F4803313602EE07B685B68002B8D
:10224C000CD17B4B1B687A4A23F480331360784B98
:10225C001B68774A23F4802313601DE07B685B685E
:10226C00B3F5A02F0CD1724B1B68714A43F4802339
:10227C0013606F4B1B686E4A43F4803313600BE0A2
:10228C006B4B1B686A4A23F480331360684B1B68E2
:10229C00674A23F4802313607B685B68002B13D0A0
:1022AC0002F004FE386108E002F000FE02463B69D1
:1022BC00D31A642B01D9032300E25D4B1B6803F492
:1022CC000033002BF0D014E002F0F0FD386108E090
:1022DC0002F0ECFD02463B69D31A642B01D90323AF
:1022EC00ECE1534B1B6803F40033002BF0D100E0FE
:1022FC0000BF7B681B6803F00203002B63D04C4BC0
:10230C005B6803F00C03002B0BD0494B5B6803F0AC
:10231C000C03082B1CD1464B5B6803F48033002B59
:10232C0016D1434B1B6803F00203002B05D07B68CE
:10233C001B69012B01D00123C0E13D4B1B6823F02D
:10234C00F8027B685B69DB00394913430B603AE0A8
:10235C007B681B69002B20D0364B01221A6002F0DF
:10236C00A5FD386108E002F0A1FD02463B69D31AD5
:10237C00022B01D90323A1E12D4B1B6803F00203AF
:10238C00002BF0D02A4B1B6823F0F8027B685B69AA
:10239C00DB00274913430B6015E0264B00221A6023
:1023AC0002F084FD386108E002F080FD02463B69D2
:1023BC00D31A022B01D9032380E11D4B1B6803F0B8
:1023CC000203002BF0D17B681B6803F00803002B81
:1023DC003AD07B689B69002B19D0174B01221A60ED
:1023EC0002F064FD386108E002F060FD02463B69D2
:1023FC00D31A022B01D9032360E10D4B5B6A03F066
:10240C000203002BF0D0012000F0CEFA1CE00A4BA6
:10241C0000221A6002F04AFD38610FE002F046FD1E
:10242C0002463B69D31A022B08D9032346E100BFAD
:10243C00001002400000424280044242924B5B6A10
:10244C0003F00203002BE9D17B681B6803F0040343
:10245C00002B00F0A6800023FB758B4BDB6903F08F
:10246C008053002B0DD1884BDB69874A43F0805396
:10247C00D361854BDB6903F08053BB60BB680123E0
:10248C00FB75824B1B6803F48073002B18D17F4BB8
:10249C001B687E4A43F48073136002F007FD3861B9
:1024AC0008E002F003FD02463B69D31A642B01D904
:1024BC00032303E1754B1B6803F48073002BF0D0EE
:1024CC007B68DB68012B06D16F4B1B6A6E4A43F0AD
:1024DC00010313622DE07B68DB68002B0CD16A4B87
:1024EC001B6A694A23F001031362674B1B6A664A35
:1024FC0023F0040313621CE07B68DB68052B0CD112
:10250C00614B1B6A604A43F0040313625E4B1B6A07
:10251C005D4A43F0010313620BE05B4B1B6A5A4AA2
:10252C0023F001031362584B1B6A574A23F0040330
:10253C0013627B68DB68002B15D002F0B7FC3861A6
:10254C000AE002F0B3FC02463B69D31A41F288322E
:10255C00934201D90323B1E04B4B1B6A03F00203F6
:10256C00002BEED014E002F0A1FC38610AE002F07E
:10257C009DFC02463B69D31A41F28832934201D941
:10258C0003239BE0404B1B6A03F00203002BEED1AC
:10259C00FB7D012B05D13C4BDB693B4A23F080537F
:1025AC00D3617B68DB69002B00F08780364B5B685E
:1025BC0003F00C03082B61D07B68DB69022B46D13E
:1025CC00334B00221A6002F071FC386108E002F013
:1025DC006DFC02463B69D31A022B01D903236DE033
:1025EC00294B1B6803F00073002BF0D17B681B6A2E
:1025FC00B3F5803F08D1244B5B6823F400327B6831
:10260C009B68214913434B601F4B5B6823F4741286
:10261C007B68196A7B685B6A0B431B4913434B60ED
:10262C001B4B01221A6002F041FC386108E002F0F9
:10263C003DFC02463B69D31A022B01D903233DE032
:10264C00114B1B6803F00073002BF0D035E0104BDE
:10265C0000221A6002F02AFC386108E002F026FC25
:10266C0002463B69D31A022B01D9032326E0064B01
:10267C001B6803F00073002BF0D11EE07B68DB6954
:10268C00012B07D1012319E000100240007000401B
:10269C00600042420B4B5B68FB60FB6803F48032CA
:1026AC007B681B6A9A4206D1FB6803F470127B6844
:1026BC005B6A9A4201D0012300E0002318461837C8
:1026CC00BD4680BD0010024080B584B000AF78607C
:1026DC0039607B68002B01D10123D0E06A4B1B6869
:1026EC0003F007033A689A4210D9674B1B6823F032
:1026FC00070265493B6813430B60634B1B6803F08F
:10270C0007033A689A4201D00123B8E07B681B6842
:10271C0003F00203002B20D07B681B6803F004033A
:10272C00002B05D0594B5B68584A43F4E063536067
:10273C007B681B6803F00803002B05D0534B5B68C8
:10274C00524A43F460535360504B5B6823F0F002E1
:10275C007B689B684D4913434B607B681B6803F097
:10276C000103002B40D07B685B68012B07D1474BE2
:10277C001B6803F40033002B15D101237FE07B6829
:10278C005B68022B07D1414B1B6803F00073002BD5
:10279C0009D1012373E03D4B1B6803F00203002BAE
:1027AC0001D101236BE0394B5B6823F003027B689A
:1027BC005B68364913434B6002F078FBF8600AE023
:1027CC0002F074FB0246FB68D31A41F28832934242
:1027DC0001D9032353E02D4B5B6803F00C027B689B
:1027EC005B689B009A42EBD1274B1B6803F00703F5
:1027FC003A689A4210D2244B1B6823F007022249F4
:10280C003B6813430B60204B1B6803F007033A68CB
:10281C009A4201D0012332E07B681B6803F0040369
:10282C00002B08D0194B5B6823F4E0627B68DB68F3
:10283C00164913434B607B681B6803F00803002B9D
:10284C0009D0124B5B6823F460527B681B69DB0078
:10285C000E4913434B6000F021F802460B4B5B68AA
:10286C001B0903F00F030A49CB5C22FA03F3094A54
:10287C001360094B1B68184602F0D6FA0023184661
:10288C001037BD4680BD00BF002002400010024042
:10289C00145F0008000000200400002080B487B002
:1028AC0000AF0023FB600023BB6000237B6100238F
:1028BC007B6000233B611E4B5B68FB60FB6803F095
:1028CC000C03042B02D0082B03D027E0194B3B61DF
:1028DC0027E0FB689B0C03F00F03174AD35C7B606B
:1028EC00FB6803F48033002B10D0114B5B685B0C3E
:1028FC0003F00103114AD35CBB607B680D4A03FBF8
:10290C0002F2BB68B2FBF3F37B6104E07B680C4A18
:10291C0002FB03F37B617B693B6102E0054B3B618E
:10292C0000BF3B6918461C37BD4680BC704700BFD2
:10293C000010024000127A002C5F00083C5F000877
:10294C0000093D0080B400AF024B1B681846BD4621
:10295C0080BC70470000002080B500AFFFF7F2FF8D
:10296C000246054B5B681B0A03F007030349CB5C6B
:10297C0022FA03F3184680BD00100240245F0008C1
:10298C0080B500AFFFF7DEFF0246054B5B68DB0A44
:10299C0003F007030349CB5C22FA03F3184680BD0E
:1029AC0000100240245F000880B485B000AF78604E
:1029BC000A4B1B680A4AA2FB03235B0A7A6802FBD8
:1029CC0003F3FB6000BFFB685A1EFA60002BF9D1C1
:1029DC0000BF00BF1437BD4680BC7047000000200C
:1029EC00D34D621080B582B000AF78607B68002B4D
:1029FC0001D1012376E07B685B6A002B08D17B68F0
:102A0C005B68B3F5827F09D07B680022DA6105E050
:102A1C007B6800221A617B6800225A617B68002265
:102A2C009A627B6893F85130DBB2002B06D17B683D
:102A3C00002283F850207868FEF7D2FE7B680222D1
:102A4C0083F851207B681B681A687B681B6822F02E
:102A5C0040021A607B685B6803F482727B689B6837
:102A6C0003F404431A437B68DB6803F400631A43E2
:102A7C007B681B6903F002031A437B685B6903F0F4
:102A8C0001031A437B689B6903F400731A437B6848
:102A9C00DB6903F038031A437B681B6A03F080037D
:102AAC0042EA03017B689B6A03F400527B681B6853
:102ABC000A431A607B689B691A0C7B681B6802F0DE
:102ACC0004025A607B681B68DA697B681B6822F415
:102ADC000062DA617B6800225A657B68012283F808
:102AEC005120002318460837BD4680BD80B588B0FC
:102AFC0000AFF860B9603B601346FB800023FB77A6
:102B0C00FB6893F85030012B01D102232DE1FB68B7
:102B1C00012283F8502002F0C9F9B861FB88FB82CE
:102B2C00FB6893F85130DBB2012B02D00223FB7708
:102B3C0016E1BB68002B02D0FB88002B02D10123CD
:102B4C00FB770DE1FB68032283F85120FB68002220
:102B5C005A65FB68BA681A63FB68FA889A86FB6840
:102B6C00FA88DA86FB6800229A63FB6800229A874F
:102B7C00FB680022DA87FB6800225A64FB6800229B
:102B8C001A64FB689B68B3F5004F0FD1FB681B6898
:102B9C001A68FB681B6822F040021A60FB681B680D
:102BAC001A68FB681B6842F480421A60FB681B6859
:102BBC001B6803F04003402B07D0FB681B681A68A6
:102BCC00FB681B6842F040021A60FB68DB68B3F5D7
:102BDC00006F4FD1FB685B68002B02D0FB8A012B86
:102BEC0042D1FB681B6B1A88FB681B68DA60FB68B8
:102BFC001B6B9A1CFB681A63FB68DB8E9BB2013B58
:102C0C009AB2FB68DA862FE0FB681B689B6803F0BE
:102C1C000203022B12D1FB681B6B1A88FB681B6822
:102C2C00DA60FB681B6B9A1CFB681A63FB68DB8E13
:102C3C009BB2013B9AB2FB68DA8615E002F036F9DA
:102C4C000246BB69D31A3A689A4203D83B68B3F17F
:102C5C00FF3F02D13B68002B06D10323FB77FB68B7
:102C6C00012283F851207BE0FB68DB8E9BB2002BAA
:102C7C00CAD150E0FB685B68002B02D0FB8A012BA9
:102C8C0044D1FB681A6BFB681B680C3312781A7002
:102C9C00FB681B6B5A1CFB681A63FB68DB8E9BB2D0
:102CAC00013B9AB2FB68DA8630E0FB681B689B68D4
:102CBC0003F00203022B13D1FB681A6BFB681B6831
:102CCC000C3312781A70FB681B6B5A1CFB681A6366
:102CDC00FB68DB8E9BB2013B9AB2FB68DA8615E08F
:102CEC0002F0E4F80246BB69D31A3A689A4203D858
:102CFC003B68B3F1FF3F02D13B68002B06D10323A5
:102D0C00FB77FB68012283F8512029E0FB68DB8EFE
:102D1C009BB2002BC9D1BA693968F86800F0CCFBBA
:102D2C000346002B02D0FB6820225A65FB689B6887
:102D3C00002B0AD100233B61FB681B68DB683B61FD
:102D4C00FB681B689B683B613B69FB685B6D002BF8
:102D5C0002D00123FB7703E0FB68012283F85120AA
:102D6C00FB68002283F85020FB7F18462037BD46B5
:102D7C0080BD80B588B002AFF860B9603B60134687
:102D8C00FB800023FB75FB6893F85130DBB2012B01
:102D9C0002D00223FB75FBE0FB685B68B3F5827F16
:102DAC0012D1FB689B68002B0ED1FB68042283F8C0
:102DBC005120FA883B6800931346BA68B968F868E2
:102DCC0000F0EFF80346E8E0FB6893F85030012B75
:102DDC0001D10223E1E0FB68012283F8502002F0CC
:102DEC0065F83861BB68002B02D0FB88002B02D140
:102DFC000123FB75CCE0FB68042283F85120FB68AF
:102E0C0000225A65FB68BA689A63FB68FA889A874D
:102E1C00FB68FA88DA87FB6800221A63FB680022D9
:102E2C009A86FB680022DA86FB6800221A64FB682B
:102E3C0000225A64FB689B68B3F5004F0FD1FB6806
:102E4C001B681A68FB681B6822F040021A60FB685A
:102E5C001B681A68FB681B6822F480421A60FB68C6
:102E6C001B681B6803F04003402B07D0FB681B68F2
:102E7C001A68FB681B6842F040021A60FB68DB684A
:102E8C00002B6AD132E0FB681B689B6803F00103DE
:102E9C00012B15D1FB681B6803F10C02FB689B6BC3
:102EAC001278D2B21A70FB689B6B5A1CFB689A633F
:102EBC00FB68DB8F9BB2013B9AB2FB68DA8715E0AB
:102ECC0001F0F4FF02463B69D31A3A689A4203D8E0
:102EDC003B68B3F1FF3F02D13B68002B06D10323C3
:102EEC00FB75FB68012283F8512051E0FB68DB8FF6
:102EFC009BB2002BC7D135E0FB681B689B6803F0C5
:102F0C000103012B13D1FB681B68DA68FB689B6B10
:102F1C0092B21A80FB689B6B9A1CFB689A63FB68E5
:102F2C00DB8F9BB2013B9AB2FB68DA8715E001F0AC
:102F3C00BDFF02463B69D31A3A689A4203D83B68F4
:102F4C00B3F1FF3F02D13B68002B06D10323FB7585
:102F5C00FB68012283F851201AE0FB68DB8F9BB2DF
:102F6C00002BC9D13A693968F86800F053FA034666
:102F7C00002B02D0FB6820225A65FB685B6D002B8E
:102F8C0002D00123FB7503E0FB68012283F851207A
:102F9C00FB68002283F85020FB7D18461837BD468D
:102FAC0080BD80B58CB000AFF860B9607A607B8072
:102FBC000123FB62002387F82B30FB6893F8503019
:102FCC00012B01D1022398E1FB68012283F85020E8
:102FDC0001F06CFF7862FB6893F8513087F823306E
:102FEC00FB685B68FB617B887B8397F82330012B44
:102FFC000FD0FB69B3F5827F07D1FB689B68002B70
:10300C0003D197F82330042B03D0022387F82B30FD
:10301C006DE1BB68002B05D07B68002B02D07B8850
:10302C00002B03D1012387F82B3060E1FB6893F868
:10303C005130DBB2042B03D0FB68052283F85120FE
:10304C00FB6800225A65FB687A689A63FB687A8889
:10305C00DA87FB687A889A87FB68BA681A63FB6818
:10306C007A88DA86FB687A889A86FB6800221A646A
:10307C00FB6800225A64FB681B681B6803F0400362
:10308C00402B07D0FB681B681A68FB681B6842F072
:10309C0040021A60FB68DB68B3F5006F7CD1FB68FB
:1030AC005B68002B02D07B8B012B6AD1FB681B6BFE
:1030BC001A88FB681B68DA60FB681B6B9A1CFB6840
:1030CC001A63FB68DB8E9BB2013B9AB2FB68DA8613
:1030DC0057E0FB681B689B6803F00203022B1BD1B3
:1030EC00FB68DB8E9BB2002B16D0FB6A012B13D135
:1030FC00FB681B6B1A88FB681B68DA60FB681B6B30
:10310C009A1CFB681A63FB68DB8E9BB2013B9AB27C
:10311C00FB68DA860023FB62FB681B689B6803F084
:10312C000103012B19D1FB68DB8F9BB2002B14D050
:10313C00FB681B68DA68FB689B6B92B21A80FB68B1
:10314C009B6B9A1CFB689A63FB68DB8F9BB2013B01
:10315C009AB2FB68DA870123FB6201F0A7FE0246F4
:10316C007B6AD31ABA6B9A420BD8BB6BB3F1FF3F95
:10317C0007D0032387F82B30FB68012283F85120FA
:10318C00B5E0FB68DB8E9BB2002BA2D1FB68DB8F1A
:10319C009BB2002B9DD180E0FB685B68002B02D0BA
:1031AC007B8B012B6FD1FB681A6BFB681B680C3394
:1031BC0012781A70FB681B6B5A1CFB681A63FB684D
:1031CC00DB8E9BB2013B9AB2FB68DA865BE0FB6854
:1031DC001B689B6803F00203022B1CD1FB68DB8E7F
:1031EC009BB2002B17D0FB6A012B14D1FB681A6B16
:1031FC00FB681B680C3312781A70FB681B6B5A1C2B
:10320C00FB681A63FB68DB8E9BB2013B9AB2FB68CE
:10321C00DA860023FB62FB681B689B6803F00103E2
:10322C00012B19D1FB68DB8F9BB2002B14D0FB68F0
:10323C001B68DA68FB689B6BD2B21A70FB689B6BDD
:10324C005A1CFB689A63FB68DB8F9BB2013B9AB2FA
:10325C00FB68DA870123FB6201F028FE02467B6AD9
:10326C00D31ABA6B9A4203D8BB6BB3F1FF3F02D1AE
:10327C00BB6B002B07D1032387F82B30FB68012293
:10328C0083F8512033E0FB68DB8E9BB2002B9ED180
:10329C00FB68DB8F9BB2002B99D17A6AB96BF8680B
:1032AC0000F00AF90346002B06D0012387F82B30D7
:1032BC00FB6820225A651AE0FB689B68002B0AD138
:1032CC0000237B61FB681B68DB687B61FB681B6808
:1032DC009B687B617B69FB685B6D002B03D00123D2
:1032EC0087F82B3003E0FB68012283F85120FB6840
:1032FC00002283F8502097F82B3018463037BD4603
:10330C0080BD000080B588B000AFF860B9603B604C
:10331C001346FB7101F0CAFD0246BB6A9B1A3A6860
:10332C001344FB6101F0C2FDB861394B1B685B01B2
:10333C001B0DFA6902FB03F37B6154E03B68B3F1AC
:10334C00FF3F50D001F0B2FD0246BB69D31AFA69B7
:10335C009A4202D9FB69002B3DD1FB681B685A6865
:10336C00FB681B6822F0E0025A60FB685B68B3F5EF
:10337C00827F11D1FB689B68B3F5004F04D0FB68CA
:10338C009B68B3F5806F07D1FB681B681A68FB68F4
:10339C001B6822F040021A60FB689B6AB3F5005F61
:1033AC000FD1FB681B681A68FB681B6822F400527B
:1033BC001A60FB681B681A68FB681B6842F40052B1
:1033CC001A60FB68012283F85120FB68002283F805
:1033DC005020032317E07B69002B01D10023FB61F4
:1033EC007B69013B7B61FB681B689A68BB68134077
:1033FC00BA689A420CBF01230023DBB21A46FB7950
:10340C009A429BD1002318462037BD4680BD00BF91
:10341C000000002080B586B002AFF860B9607A6019
:10342C00FB685B68B3F5827F11D1FB689B68B3F5D1
:10343C00004F04D0FB689B68B3F5806F07D1FB6825
:10344C001B681A68FB681B6822F040021A60FB6854
:10345C005B68B3F5827F17D1FB689B68B3F5806F0F
:10346C0012D17B680093BB6800220121F868FFF73A
:10347C0049FF0346002B1AD0FB685B6D43F020021A
:10348C00FB685A65032313E07B680093BB6800223A
:10349C008021F868FFF736FF0346002B07D0FB6846
:1034AC005B6D43F02002FB685A65032300E00023A8
:1034BC0018461037BD4680BD80B586B002AFF860A7
:1034CC00B9607A607B680093BB6800228021F86841
:1034DC00FFF718FF0346002B07D0FB685B6D43F02A
:1034EC002002FB685A65032300E0002318461037BE
:1034FC00BD4680BD80B485B000AF786039607B6814
:10350C0093F83C30012B01D1022346E07B68012269
:10351C0083F83C207B68022283F83D207B681B6883
:10352C005B68FB607B681B689B68BB60FB6823F077
:10353C007003FB603B681B68FA681343FB607B6895
:10354C001B68FA685A607B681B68164A93420ED057
:10355C007B681B68B3F1804F09D07B681B68124AEB
:10356C00934204D07B681B68104A93420CD1BB6811
:10357C0023F08003BB603B685B68BA681343BB6095
:10358C007B681B68BA689A607B68012283F83D20CF
:10359C007B68002283F83C20002318461437BD4674
:1035AC0080BC7047002C0140000400400008004023
:1035BC0080B485B000AF786039600023FB607B6815
:1035CC0093F83C30012B01D102233DE07B680122B2
:1035DC0083F83C20FB6823F0FF023B68DB68134355
:1035EC00FB60FB6823F440723B689B681343FB60F1
:1035FC00FB6823F480623B685B681343FB60FB68E9
:10360C0023F400623B681B681343FB60FB6823F4E4
:10361C0080523B681B691343FB60FB6823F4005228
:10362C003B685B691343FB60FB6823F480423B6897
:10363C00DB691343FB607B681B68FA685A647B6820
:10364C00002283F83C20002318461437BD4680BC6A
:10365C00704780B483B000AF786000BF0C37BD46B4
:10366C0080BC704780B483B000AF786000BF0C376B
:10367C00BD4680BC704780B582B000AF78607B6877
:10368C00002B01D1012341E07B6893F83D30DBB284
:10369C00002B06D17B68002283F83C207868FEF76B
:1036AC00E9F87B68022283F83D207B681A687B6806
:1036BC0004331946104600F021FE7B68012283F882
:1036CC0046207B68012283F83E207B68012283F828
:1036DC003F207B68012283F840207B68012283F81D
:1036EC0041207B68012283F842207B68012283F809
:1036FC0043207B68012283F844207B68012283F8F5
:10370C0045207B68012283F83D20002318460837AA
:10371C00BD4680BD80B582B000AF78607B68002B61
:10372C0001D1012341E07B6893F83D30DBB2002BE3
:10373C0006D17B68002283F83C20786800F039F8C9
:10374C007B68022283F83D207B681A687B6804330F
:10375C001946104600F0D2FD7B68012283F8462002
:10376C007B68012283F83E207B68012283F83F208E
:10377C007B68012283F840207B68012283F841207A
:10378C007B68012283F842207B68012283F8432066
:10379C007B68012283F844207B68012283F8452052
:1037AC007B68012283F83D20002318460837BD466C
:1037BC0080BD80B483B000AF786000BF0C37BD46CD
:1037CC0080BC704780B584B000AF786039603B68CE
:1037DC00002B09D17B6893F83E30DBB2012B14BF70
:1037EC0001230023DBB222E03B68042B09D17B6868
:1037FC0093F83F30DBB2012B14BF01230023DBB263
:10380C0015E03B68082B09D17B6893F84030DBB29C
:10381C00012B14BF01230023DBB208E07B6893F873
:10382C004130DBB2012B14BF01230023DBB2002B90
:10383C0001D001235EE03B68002B04D17B6802229F
:10384C0083F83E2013E03B68042B04D17B680222F2
:10385C0083F83F200BE03B68082B04D17B680222E5
:10386C0083F8402003E07B68022283F841207B68C8
:10387C001B6801223968184601F0CDF87B681B687B
:10388C001E4A934207D17B681B685A6C7B681B6885
:10389C0042F400425A647B681B68184A93420ED06B
:1038AC007B681B68B3F1804F09D07B681B68144A96
:1038BC00934204D07B681B68124A934211D17B68F7
:1038CC001B689B6803F00703FB60FB68062B10D09A
:1038DC007B681B681A687B681B6842F001021A60DF
:1038EC0007E07B681B681A687B681B6842F0010262
:1038FC001A60002318461037BD4680BD002C0140CD
:10390C00000400400008004080B582B000AF786031
:10391C007B68002B01D1012341E07B6893F83D309B
:10392C00DBB2002B06D17B68002283F83C20786840
:10393C0000F039F87B68022283F83D207B681A6816
:10394C007B6804331946104600F0D8FC7B680122D2
:10395C0083F846207B68012283F83E207B68012295
:10396C0083F83F207B68012283F840207B6801228A
:10397C0083F841207B68012283F842207B68012276
:10398C0083F843207B68012283F844207B68012262
:10399C0083F845207B68012283F83D2000231846DC
:1039AC000837BD4680BD80B483B000AF786000BFDF
:1039BC000C37BD4680BC704780B584B000AF7860D2
:1039CC0039600023FB733B68002B04D17B6893F8B0
:1039DC003E30DBB213E03B68042B04D17B6893F8D8
:1039EC003F30DBB20BE03B68082B04D17B6893F8CB
:1039FC004030DBB203E07B6893F84130DBB2BB7341
:103A0C003B68002B04D17B6893F84230DBB213E0A7
:103A1C003B68042B04D17B6893F84330DBB20BE09A
:103A2C003B68082B04D17B6893F84430DBB203E08D
:103A3C007B6893F84530DBB27B73BB7B012B02D1E7
:103A4C007B7B012B01D00123B8E03B68002B04D118
:103A5C007B68022283F83E2013E03B68042B04D1E0
:103A6C007B68022283F83F200BE03B68082B04D1D3
:103A7C007B68022283F8402003E07B68022283F8F3
:103A8C0041203B68002B04D17B68022283F8422042
:103A9C0013E03B68042B04D17B68022283F843209B
:103AAC000BE03B68082B04D17B68022283F844208E
:103ABC0003E07B68022283F845203B680C2B41D83D
:103ACC0001A252F823F000BF093B0008513B00084B
:103ADC00513B0008513B00081B3B0008513B0008C0
:103AEC00513B0008513B00082D3B0008513B00089E
:103AFC00513B0008513B00083F3B00087B681B68AA
:103B0C00DA687B681B6842F00202DA601DE07B68B1
:103B1C001B68DA687B681B6842F00402DA6014E008
:103B2C007B681B68DA687B681B6842F00802DA6005
:103B3C000BE07B681B68DA687B681B6842F010023C
:103B4C00DA6002E00123FB7300BFFB7B002B34D156
:103B5C007B681B6801223968184600F05CFF7B68A3
:103B6C001B68184A93420ED07B681B68B3F1804FD8
:103B7C0009D07B681B68144A934204D07B681B688D
:103B8C00124A934211D17B681B689B6803F00703B0
:103B9C00BB60BB68062B10D07B681B681A687B68FF
:103BAC001B6842F001021A6007E07B681B681A6808
:103BBC007B681B6842F001021A60FB7B18461037C9
:103BCC00BD4680BD002C01400004004000080040B0
:103BDC0080B582B000AF78607B681B681B6903F00E
:103BEC000203022B22D17B681B68DB6803F0020303
:103BFC00022B1BD17B681B686FF002021A617B6879
:103C0C0001221A777B681B689B6903F00303002B66
:103C1C0003D07868FDF7C2F905E0786800F053FB33
:103C2C00786800F059FB7B6800221A777B681B6868
:103C3C001B6903F00403042B22D17B681B68DB682F
:103C4C0003F00403042B1BD17B681B686FF0040288
:103C5C001A617B6802221A777B681B689B6903F4E4
:103C6C004073002B03D07868FDF798F905E078686D
:103C7C0000F029FB786800F02FFB7B6800221A7794
:103C8C007B681B681B6903F00803082B22D17B6837
:103C9C001B68DB6803F00803082B1BD17B681B68CF
:103CAC006FF008021A617B6804221A777B681B6824
:103CBC00DB6903F00303002B03D07868FDF76EF982
:103CCC0005E0786800F0FFFA786800F005FB7B6887
:103CDC0000221A777B681B681B6903F01003102BFA
:103CEC0022D17B681B68DB6803F01003102B1BD1FF
:103CFC007B681B686FF010021A617B6808221A77C8
:103D0C007B681B68DB6903F44073002B03D0786875
:103D1C00FDF744F905E0786800F0D5FA786800F012
:103D2C00DBFA7B6800221A777B681B681B6903F03F
:103D3C000103012B0ED17B681B68DB6803F00103C8
:103D4C00012B07D17B681B686FF001021A61786840
:103D5C0000F0B0FA7B681B681B6903F08003802BB2
:103D6C000ED17B681B68DB6803F08003802B07D1C6
:103D7C007B681B686FF080021A617868FFF772FC31
:103D8C007B681B681B6903F04003402B0ED17B68DA
:103D9C001B68DB6803F04003402B07D17B681B6872
:103DAC006FF040021A61786800F09FFA7B681B681C
:103DBC001B6903F02003202B0ED17B681B68DB688A
:103DCC0003F02003202B07D17B681B686FF02002C7
:103DDC001A617868FFF73DFC00BF0837BD4680BD0F
:103DEC0080B586B000AFF860B9607A600023FB75CF
:103DFC00FB6893F83C30012B01D1022388E0FB686F
:103E0C00012283F83C207B68002B1BD1FB681868CF
:103E1C00BB681968BB685A68BB68DB6800F058FC63
:103E2C00FB681B689A69FB681B6822F00C029A619C
:103E3C00FB681B689969BB689A68FB681B680A4336
:103E4C009A6160E07B68042B1CD1FB681868BB6826
:103E5C001968BB685A68BB68DB6800F0C1FCFB687A
:103E6C001B689A69FB681B6822F440629A61FB68C4
:103E7C001B689969BB689B681A02FB681B680A433C
:103E8C009A6140E07B68082B1BD1FB681868BB6803
:103E9C001968BB685A68BB68DB6800F00CFDFB68EE
:103EAC001B68DA69FB681B6822F00C02DA61FB689C
:103EBC001B68D969BB689A68FB681B680A43DA619E
:103ECC0021E07B680C2B1CD1FB681868BB68196857
:103EDC00BB685A68BB68DB6800F028FDFB681B6890
:103EEC00DA69FB681B6822F44062DA61FB681B68C4
:103EFC00D969BB689B681A02FB681B680A43DA61C4
:103F0C0001E00123FB75FB68002283F83C20FB7D5C
:103F1C0018461837BD4680BD80B586B000AFF86036
:103F2C00B9607A600023FB75FB6893F83C30012B79
:103F3C0001D10223AEE0FB68012283F83C207B68B0
:103F4C000C2B00F29F8001A252F823F08D3F000849
:103F5C00914000089140000891400008CD3F0008B6
:103F6C009140000891400008914000080F40000863
:103F7C009140000891400008914000084F40000813
:103F8C00FB681B68B968184600F01AFAFB681B68D6
:103F9C009A69FB681B6842F008029A61FB681B680F
:103FAC009A69FB681B6822F004029A61FB681B6823
:103FBC009969BB681A69FB681B680A439A6164E0DB
:103FCC00FB681B68B968184600F060FAFB681B6850
:103FDC009A69FB681B6842F400629A61FB681B6873
:103FEC009A69FB681B6822F480629A61FB681B6803
:103FFC009969BB681B691A02FB681B680A439A61C2
:10400C0043E0FB681B68B968184600F0A9FAFB6826
:10401C001B68DA69FB681B6842F00802DA61FB680E
:10402C001B68DA69FB681B6822F00402DA61FB6822
:10403C001B68D969BB681A69FB681B680A43DA619B
:10404C0023E0FB681B68B968184600F0F3FAFB68BC
:10405C001B68DA69FB681B6842F40062DA61FB6872
:10406C001B68DA69FB681B6822F48062DA61FB6802
:10407C001B68D969BB681B691A02FB681B680A4379
:10408C00DA6102E00123FB7500BFFB68002283F8B4
:10409C003C20FB7D18461837BD4680BD80B584B0EA
:1040AC0000AF786039600023FB737B6893F83C3079
:1040BC00012B01D10223B4E07B68012283F83C2060
:1040CC007B68022283F83D207B681B689B68BB6081
:1040DC00BB6823F07703BB60BB6823F47F43BB60F2
:1040EC007B681B68BA689A603B681B68B3F5005F15
:1040FC003ED0B3F5005F00F28780B3F5805F00F02F
:10410C008680B3F5805F7FD8702B1AD0702B7BD84C
:10411C00602B50D0602B77D8502B3CD0502B73D8C1
:10412C00402B58D0402B6FD8302B64D0302B6BD811
:10413C00202B60D0202B67D8002B5CD0102B5AD0B2
:10414C0062E07B6818683B6899683B685A683B6812
:10415C00DB6800F041FC7B681B689B68BB60BB683C
:10416C0043F07703BB607B681B68BA689A604FE0CA
:10417C007B6818683B6899683B685A683B68DB68E1
:10418C0000F02AFC7B681B689A687B681B6842F409
:10419C0080429A603CE07B6818683B6859683B68D1
:1041AC00DB681A4600F0EEFA7B681B685021184653
:1041BC0000F0F8FB2CE07B6818683B6859683B689A
:1041CC00DB681A4600F048FB7B681B6860211846C8
:1041DC0000F0E8FB1CE07B6818683B6859683B689A
:1041EC00DB681A4600F0CEFA7B681B684021184643
:1041FC0000F0D8FB0CE07B681A683B681B6819461A
:10420C00104600F0CFFB03E00123FB7300E000BF7E
:10421C007B68012283F83D207B68002283F83C20D8
:10422C00FB7B18461037BD4680BD000080B485B0BE
:10423C0000AF786039600023FB603B680C2B31D8F1
:10424C0001A252F823F000BF89420008B1420008D5
:10425C00B1420008B142000893420008B142000884
:10426C00B1420008B14200089D420008B14200086A
:10427C00B1420008B1420008A74200087B681B68E5
:10428C005B6BFB600FE07B681B689B6BFB600AE061
:10429C007B681B68DB6BFB6005E07B681B681B6C39
:1042AC00FB6000E000BFFB6818461437BD4680BCBD
:1042BC00704700BF80B483B000AF786000BF0C378C
:1042CC00BD4680BC704780B483B000AF786000BF3F
:1042DC000C37BD4680BC704780B483B000AF7860AB
:1042EC0000BF0C37BD4680BC704780B483B000AFB4
:1042FC00786000BF0C37BD4680BC704780B485B079
:10430C0000AF786039607B681B68FB607B68294A6A
:10431C0093420BD07B68B3F1804F07D07B68264A61
:10432C00934203D07B68254A934208D1FB6823F063
:10433C007003FB603B685B68FA681343FB607B6847
:10434C001C4A93420BD07B68B3F1804F07D07B683B
:10435C00194A934203D07B68184A934208D1FB68F0
:10436C0023F44073FB603B68DB68FA681343FB6023
:10437C00FB6823F080023B685B691343FB607B683E
:10438C00FA681A603B689A687B68DA623B681A685C
:10439C007B689A627B68074A934203D13B681A692F
:1043AC007B681A637B6801225A6100BF1437BD46D3
:1043BC0080BC7047002C0140000400400008004005
:1043CC0080B487B000AF786039607B681B6A7B6112
:1043DC007B681B6A23F001027B681A627B685B684E
:1043EC003B617B689B69FB60FB6823F07003FB609F
:1043FC00FB6823F00303FB603B681B68FA681343FC
:10440C00FB607B6923F002037B613B689B687A69E4
:10441C0013437B617B681C4A93420CD17B6923F06C
:10442C0008037B613B68DB687A6913437B617B69BA
:10443C0023F004037B617B68134A934211D13B69DF
:10444C0023F480733B613B6923F400733B613B684D
:10445C005B693A6913433B613B689B693A69134357
:10446C003B617B683A695A607B68FA689A613B6881
:10447C005A687B685A637B687A691A6200BF1C377A
:10448C00BD4680BC704700BF002C014080B487B093
:10449C0000AF786039607B681B6A7B617B681B6A44
:1044AC0023F010027B681A627B685B683B617B6857
:1044BC009B69FB60FB6823F4E043FB60FB6823F41F
:1044CC004073FB603B681B681B02FA681343FB607C
:1044DC007B6923F020037B613B689B681B017A6935
:1044EC0013437B617B681D4A93420DD17B6923F09A
:1044FC0080037B613B68DB681B017A6913437B613A
:10450C007B6923F040037B617B68144A934213D18F
:10451C003B6923F480633B613B6923F400633B619B
:10452C003B685B699B003A6913433B613B689B6941
:10453C009B003A6913433B617B683A695A607B681C
:10454C00FA689A613B685A687B689A637B687A69F7
:10455C001A6200BF1C37BD4680BC7047002C01405E
:10456C0080B487B000AF786039607B681B6A7B6170
:10457C007B681B6A23F480727B681A627B685B68B9
:10458C003B617B68DB69FB60FB6823F07003FB60BD
:10459C00FB6823F00303FB603B681B68FA6813435A
:1045AC00FB607B6923F400737B613B689B681B0297
:1045BC007A6913437B617B681D4A93420DD17B69F9
:1045CC0023F400637B613B68DB681B027A6913434D
:1045DC007B617B6923F480637B617B68144A934223
:1045EC0013D13B6923F480533B613B6923F40053A3
:1045FC003B613B685B691B013A6913433B613B6858
:10460C009B691B013A6913433B617B683A695A60A9
:10461C007B68FA68DA613B685A687B68DA637B68A6
:10462C007A691A6200BF1C37BD4680BC704700BF58
:10463C00002C014080B487B000AF786039607B6893
:10464C001B6A3B617B681B6A23F480527B681A628D
:10465C007B685B687B617B68DB69FB60FB6823F4D0
:10466C00E043FB60FB6823F44073FB603B681B6812
:10467C001B02FA681343FB603B6923F400533B6154
:10468C003B689B681B033A6913433B617B680F4A89
:10469C00934209D17B6923F480437B613B685B695E
:1046AC009B017A6913437B617B687A695A607B68EA
:1046BC00FA68DA613B685A687B681A647B683A6905
:1046CC001A6200BF1C37BD4680BC7047002C0140ED
:1046DC0080B487B000AFF860B9607A603B60FB686B
:1046EC001B6A3B61FB681B6A23F00102FB681A62C0
:1046FC00FB689B697B61FB681F4A93420BD0FB688C
:10470C00B3F1804F07D0FB681C4A934203D0FB687F
:10471C001B4A934201D1012300E00023002B08D057
:10472C007B6923F003037B617A697B6813437B61AC
:10473C0003E07B6943F001037B617B6923F0F003A9
:10474C007B613B681B01DBB27A6913437B613B697C
:10475C0023F00A033B61BB6803F00A033A69134375
:10476C003B61FB687A699A61FB683A691A6200BF1F
:10477C001C37BD4680BC7047002C01400004004033
:10478C000008004080B487B000AFF860B9607A6070
:10479C00FB681B6A7B61FB681B6A23F00102FB68E8
:1047AC001A62FB689B693B613B6923F0F0033B6138
:1047BC007B681B013A6913433B617B6923F00A0355
:1047CC007B617A69BB6813437B61FB683A699A61C8
:1047DC00FB687A691A6200BF1C37BD4680BC704703
:1047EC0080B487B000AFF860B9607A603B60FB685A
:1047FC001B6A7B61FB681B6A23F01002FB681A6260
:10480C00FB689B693B613B6923F440733B617B68AC
:10481C001B023A6913433B613B6923F470433B61D0
:10482C003B681B039BB23A6913433B617B6923F0E2
:10483C00A0037B61BB681B0103F0A0037A691343DF
:10484C007B61FB683A699A61FB687A691A6200BFFE
:10485C001C37BD4680BC704780B487B000AFF86091
:10486C00B9607A60FB681B6A7B61FB681B6A23F08A
:10487C001002FB681A62FB689B693B613B6923F47D
:10488C0070433B617B681B033A6913433B617B6953
:10489C0023F0A0037B61BB681B017A6913437B6126
:1048AC00FB683A699A61FB687A691A6200BF1C3727
:1048BC00BD4680BC704780B487B000AFF860B9606B
:1048CC007A603B60FB681B6A7B61FB681B6A23F4A4
:1048DC008072FB681A62FB68DB693B613B6923F001
:1048EC0003033B613A697B6813433B613B6923F0EB
:1048FC00F0033B613B681B01DBB23A6913433B613C
:10490C007B6923F400737B61BB681B0203F40073A7
:10491C007A6913437B61FB683A69DA61FB687A69EF
:10492C001A6200BF1C37BD4680BC704780B487B08C
:10493C0000AFF860B9607A603B60FB681B6A7B6112
:10494C00FB681B6A23F48052FB681A62FB68DB6904
:10495C003B613B6923F440733B617B681B023A6902
:10496C0013433B613B6923F470433B613B681B037E
:10497C009BB23A6913433B617B6923F400537B611F
:10498C00BB681B0303F400537A6913437B61FB6818
:10499C003A69DA61FB687A691A6200BF1C37BD4656
:1049AC0080BC704780B485B000AF786039607B689C
:1049BC009B68FB60FB6823F07003FB603A68FB6844
:1049CC00134343F00703FB607B68FA689A6000BFEF
:1049DC001437BD4680BC704780B487B000AFF86018
:1049EC00B9607A603B60FB689B687B617B6923F4F0
:1049FC007F437B613B681A027B681A43BB68134395
:104A0C007A6913437B61FB687A699A6000BF1C3733
:104A1C00BD4680BC704780B487B000AFF860B96009
:104A2C007A60BB6803F01F03012202FA03F37B6177
:104A3C00FB681A6A7B69DB431A40FB681A62FB68E5
:104A4C001A6ABB6803F01F03796801FA03F31A436F
:104A5C00FB681A6200BF1C37BD4680BC704780B52E
:104A6C0082B000AF78607B68002B01D1012342E05B
:104A7C007B6893F84130DBB2002B06D17B680022B7
:104A8C0083F840207868FCF78DFF7B68242283F83C
:104A9C0041207B681B68DA687B681B6822F4005233
:104AAC00DA60786800F01CF97B681B681A697B680F
:104ABC001B6822F490421A617B681B685A697B68F8
:104ACC001B6822F02A025A617B681B68DA687B68D3
:104ADC001B6842F40052DA607B6800225A647B68DF
:104AEC00202283F841207B68202283F842207B68B7
:104AFC0000225A63002318460837BD4680BD80B596
:104B0C008AB002AFF860B9603B601346FB800023AB
:104B1C007B61FB6893F84130DBB2202B6DD1BB6815
:104B2C00002B02D0FB88002B01D1012366E0FB682F
:104B3C0000225A64FB68212283F8412000F0B6F968
:104B4C007861FB68FA889A84FB68FA88DA84FB68D7
:104B5C009B68B3F5805F08D1FB681B69002B04D1FF
:104B6C000023FB61BB68BB6103E0BB68FB610023F6
:104B7C00BB612AE03B6800937B6900228021F868C6
:104B8C0000F040F80346002B01D0032336E0FB690C
:104B9C00002B0BD1BB691B881A46FB681B68C2F340
:104BAC0008025A60BB690233BB6107E0FB691A78E3
:104BBC00FB681B685A60FB690133FB61FB68DB8C8B
:104BCC009BB2013B9AB2FB68DA84FB68DB8C9BB22C
:104BDC00002BCFD13B6800937B6900224021F86801
:104BEC0000F010F80346002B01D0032306E0FB680D
:104BFC00202283F84120002300E0022318462037AE
:104C0C00BD4680BD80B590B000AFF860B9603B6028
:104C1C001346FB7150E0BB6CB3F1FF3F4CD0BB6C47
:104C2C00002B07D000F042F902463B68D31ABA6C4D
:104C3C009A4241D2FB681B680C33BB62BB6A53E8D7
:104C4C00003F7B627B6A23F4D073FB63FB681B68B9
:104C5C000C33FA6B7A633B63396B7A6B41E8002354
:104C6C00FB62FB6A002BE5D1FB681B6814337B618C
:104C7C007B6953E8003F3B613B6923F00103BB6355
:104C8C00FB681B681433BA6B3A62FB61F9693A6AC8
:104C9C0041E80023BB61BB69002BE5D1FB682022F6
:104CAC0083F84120FB68202283F84220FB68002215
:104CBC0083F8402003230FE0FB681B681A68BB686D
:104CCC001340BA689A420CBF01230023DBB21A4688
:104CDC00FB799A429FD0002318464037BD4680BDD1
:104CEC0080B584B000AF78607B681B681B6923F4C7
:104CFC0040517B68DA687B681B680A431A617B68E1
:104D0C009A687B681B691A437B685B691343BB60B9
:104D1C007B681B68DB6823F4B05323F00C037A68C0
:104D2C001268B9680B43D3607B681B685B6923F41A
:104D3C0040717B689A697B681B680A435A617B687F
:104D4C001B682C4A934203D1FDF71AFEF86002E06F
:104D5C00FDF702FEF860FA6813469B0013449A00B4
:104D6C001A447B685B689B00B2FBF3F3224AA2FBFC
:104D7C0003235B091901FA6813469B0013449A003C
:104D8C001A447B685B689B00B2FBF3F21A4BA3FBE3
:104D9C0002035B09642000FB03F3D31A1B013233BB
:104DAC00154AA2FB03235B0903F0F0031944FA68CC
:104DBC0013469B0013449A001A447B685B689B0063
:104DCC00B2FBF3F20C4BA3FB02035B09642000FB68
:104DDC0003F3D31A1B013233074AA2FB03235B09EB
:104DEC0003F00F027B681B680A449A6000BF1037FF
:104DFC00BD4680BD003801401F85EB5180B500AF2A
:104E0C00084B1B68074A43F0100313600320FCF7A0
:104E1C00D9FF002000F008F8FCF7B0FC002318467E
:104E2C0080BD00BF0020024080B582B000AF78602A
:104E3C00124B1A68124B1B7819464FF47A73B3FB5A
:104E4C00F1F3B2FBF3F31846FCF7F1FF0346002B2A
:104E5C0001D001230EE07B680F2B0AD80022796861
:104E6C004FF0FF30FCF7B9FF064A7B681360002354
:104E7C0000E0012318460837BD4680BD0000002025
:104E8C00080000200400002080B400AF054B1B7804
:104E9C001A46054B1B681344034A136000BFBD46FA
:104EAC0080BC704708000020C801002080B400AF0F
:104EBC00024B1B681846BD4680BC7047C8010020D9
:104ECC0080B584B000AF7860FFF7F0FFB8607B6806
:104EDC00FB60FB68B3F1FF3F05D00A4B1B781A4609
:104EEC00FB681344FB6000BFFFF7E0FF0246BB68A2
:104EFC00D31AFA689A42F7D800BF00BF1037BD46E4
:104F0C0080BD00BF08000020002310B50446C0E996
:104F1C000033C0E90433836081814366C2818361BD
:104F2C00194608225C3000F0F7F90D4B24626362DD
:104F3C000C4BA3620C4BE3620C4B23630C4B9C425B
:104F4C0006D003F16802944202D0D0339C4205D1C2
:104F5C0004F15800BDE8104000F056BA10BD00BF77
:104F6C007551000897510008CF510008F351000803
:104F7C00CC010020024A0349034800F069B800BF85
:104F8C000C000020B55C00081800002041680C4B98
:104F9C0010B59942044601D000F086FEA168094B79
:104FAC00994202D0204600F07FFEE168064B994200
:104FBC0004D02046BDE8104000F076BE10BD00BF06
:104FCC00CC010020340200209C02002010B50B4BB9
:104FDC000B4C0C4A20461A6004210022FFF794FF68
:104FEC0004F1680001220921FFF78EFF04F1D000C3
:104FFC000222BDE810401221FFF786BF04030020F7
:10500C00CC010020814F0008014800F0FEB900BF20
:10501C000D030020014800F0F9B900BF0D0300207A
:10502C0010B50446FFF7F0FF236A1BB1BDE8104032
:10503C00FFF7F0BF044B2362044B1B68002BF5D128
:10504C00FFF7C4FFF2E700BF994F000804030020EC
:10505C002DE9F8430746884614460026D4E9019505
:10506C00B9F1010905D52468002CF7D13046BDE80B
:10507C00F883AB89012B07D9B5F90E30013303D076
:10508C0029463846C04706436835E9E70FB407B5EB
:10509C00064904AB086853F8042B8168019300F0AF
:1050AC00D3FA03B05DF804EB04B070476400002041
:1050BC00036A70B505460E4684680BB9FFF7B0FF5E
:1050CC00636EDB0705D4A389980502D4A06D00F0AC
:1050DC009CF9A389190713D523698BB1013EA368E9
:1050EC0016F8011F013BA360E9B9002B2EDA22460A
:1050FC000A21284600F07BF8013007D00A2507E08A
:10510C002146284600F0B0F80028E7D04FF0FF35D4
:10511C00636EDA0705D4A3899B0502D4A06D00F059
:10512C0075F9284670BD002B04DAA2699A4206DC98
:10513C000A2904D023685A1C22601970CFE7224632
:10514C00284600F054F80130C9D1DFE70A2523685E
:10515C005A1C22601D70DBE7024B01461868FFF7F2
:10516C00A7BF00BF6400002010B50C46B1F90E10AB
:10517C0000F0FCF80028ABBF636DA3891B1823F467
:10518C008053ACBF6365A38110BD2DE9F0411F4670
:10519C008B890546DB050C46164605D502230022F5
:1051AC00B1F90E1000F0D0F8A389324623F48053E5
:1051BC00A38128463B46B4F90E10BDE8F04100F03F
:1051CC00E7B810B50C46B1F90E1000F0BDF8431C51
:1051DC00A38915BF606523F4805343F48053A381E6
:1051EC0018BFA38110BDB1F90E1000F09DB8F8B531
:1051FC000E461446054618B1036A0BB9FFF710FFAB
:10520C00A369A360A3891A0725D523691BB3236857
:10521C002269F6B2981A63693746834204DC214648
:10522C00284600F041FDE0B9A368013BA360236868
:10523C005A1C22601E706269431C9A4204D0A389D6
:10524C00DB0706D50A2E04D12146284600F02CFD9A
:10525C0038B93846F8BD2146284600F005F8002834
:10526C00D5D04FF0FF37F4E738B52A4B0546186810
:10527C000C4618B1036A0BB9FFF7D2FEA389B4F937
:10528C000C20180722D4D90607D409232B6042F02E
:10529C0040034FF0FF30A38134E0580712D5616B07
:1052AC0041B104F14403994202D0284600F0B0F811
:1052BC0000236363A38923F02403A3810023636089
:1052CC0023692360A38943F00803A38123694BB9A5
:1052DC00A38903F42073B3F5007F03D0214628463D
:1052EC0000F02FFDA089B4F90C2010F001030AD0B6
:1052FC000023A36063695B42A361236943B910F087
:10530C008000C4D138BD810758BF6369A360F4E73E
:10531C000020F7E76400002003460244934200D1CA
:10532C00704703F8011BF9E738B50023054D044617
:10533C0008462B60FCF7E7FB431C02D12B6803B13A
:10534C00236038BD0803002038B5044608461146D2
:10535C000022054D2A601A46FCF7F9FB431C02D1CA
:10536C002B6803B1236038BD0803002038B5044610
:10537C00084611460022054D2A601A46FCF78AFBA6
:10538C00431C02D12B6803B1236038BD08030020F5
:10539C0038B50446084611460022054D2A601A46C7
:1053AC00FCF795FB431C02D12B6803B1236038BD7D
:1053BC0008030020014B1868704700BF64000020F0
:1053CC0070B500260C4D0D4C641BA410A64209D1DF
:1053DC0000F034FD00260A4D0A4C641BA410A642B2
:1053EC0005D170BD55F8043B98470136EEE755F8EA
:1053FC00043B98470136F2E7745F0008745F0008BD
:10540C00745F0008785F00087047704770470000B1
:10541C0038B50546002940D051F8043C0C1F002B30
:10542C00B8BFE41800F0DCF81C4A136833B96360A9
:10543C0014602846BDE8384000F0D8B8A34208D91B
:10544C00206821188B4201BF19685B68091821601C
:10545C00EDE71A465B680BB1A342FAD911685018F4
:10546C00A0420BD120680144501883421160E0D156
:10547C0018685B68084410605360DAE702D90C23A3
:10548C002B60D6E7206821188B4201BF19685B6836
:10549C000918216063605460CBE738BD100300200D
:1054AC0070B50E4E0C463168054611B900F0A8FCDB
:1054BC0030602146284600F0A3FC431C0AD0C41CD3
:1054CC0024F00304A04207D0211A284600F098FCCF
:1054DC00013001D14FF0FF34204670BD1403002081
:1054EC002DE9F843CD1C25F0030508350C2D38BFEC
:1054FC000C25002D074601DBA94205D90C230026FB
:10550C003B603046BDE8F883DFF8D08000F068F8E7
:10551C00D8F800301C465CBB29463846FFF7C0FF64
:10552C00431C044655D1D8F800402646002E45D1E0
:10553C00002C48D023683146384604EB030900F0B0
:10554C005FFC81453FD1216838466D1A2946FFF72B
:10555C00A7FF013037D023682B442360D8F80030E4
:10556C00002B38D05A68A2422BD100225A600FE08F
:10557C002268521B1FD40B2A17D96119A34225602C
:10558C0018BF5960636808BFC8F8001062514B60BF
:10559C00384604F10B0600F029F826F00706231D07
:1055AC00F21AAED09B1BA350ABE7A3426268DDD1CD
:1055BC00C8F80020ECE723466468ACE7344676680C
:1055CC00B4E71346CCE70C2338463B6000F00EF8EA
:1055DC0097E72560DCE75B60FFDE00BF100300206F
:1055EC000148FFF712BF00BF0C0300200148FFF772
:1055FC000DBF00BF0C030020936810B4013B002BBF
:10560C00936007DA9469A34201DB0A2902D110BC2A
:10561C00FFF7EDBD1368581C10601970084610BCDC
:10562C007047F8B506460F461446D518AC4201D162
:10563C00002007E03A46304614F8011BFFF7DCFF68
:10564C00431CF3D1F8BD00002DE9F04F0D46144674
:10565C00984606469DB018B1036A0BB9FFF7E0FCFB
:10566C006B6ED90705D4AB899A0502D4A86DFFF7E8
:10567C00CCFEAB891B0701D52B699BB9294630465B
:10568C00FFF7F2FD70B16B6EDC0704D54FF0FF3005
:10569C001DB0BDE8F08FAB899805F7D4A86DFFF766
:1056AC00B5FEF3E70023099320238DF8293030232E
:1056BC004FF00109CDF80C80DFF8AC818DF82A3061
:1056CC0023469A4613F8012B0AB1252AF9D1BAEBD5
:1056DC00040B0BD05B46224629463046FFF7A1FF50
:1056EC00013000F0A980099A5A4409929AF80030C6
:1056FC00002B00F0A18000234FF0FF32CDE90523F1
:10570C000AF1010A049307938DF853301A93544607
:10571C00052214F8011B544800F082FB049AD8B9F6
:10572C00D10644BF20238DF85330130744BF2B23DD
:10573C008DF853309AF800302A2B15D0544600209F
:10574C004FF00A0C079A214611F8013B303B092B0C
:10575C004DD9B0B1079214E0A0EB080309FA03F39A
:10576C001343A2460493D2E7039B191D1B680391B4
:10577C00002BBBBF5B4242F0020207930793B8BFFA
:10578C00049223782E2B0CD163782A2B34D1039BD3
:10579C0002341A1D1B680392002BB8BF4FF0FF3365
:1057AC000593DFF8C8A003225046217800F038FB9F
:1057BC0038B14022049BA0EB0A0082401343013411
:1057CC00049314F8011B062229488DF8281000F0C8
:1057DC0027FB00283FD0274B1BBB039B073323F031
:1057EC00070308330393099B3B44099368E70C4672
:1057FC0001200CFB0232A6E700234FF00A0C1946DD
:10580C0001340593204610F8012B303A092A03D9AC
:10581C00002BC6D00591C4E7044601230CFB0121E3
:10582C00F0E703AB00932A463046134B04A9AFF3C1
:10583C0000800746781CD6D16B6ED90705D4AB898E
:10584C009A0502D4A86DFFF7E1FDAB895B063FF525
:10585C001DAF09981CE703AB00932A463046064B54
:10586C0004A900F07DF8E4E73E5F0008445F0008FF
:10587C00485F0008000000002F5600082DE9F04793
:10588C00164699468A680B6907469342B8BF134679
:10589C00336091F843200C46DDF820800AB10133C7
:1058AC0033602368990642BF33680233336025683E
:1058BC0015F0060506D104F1190AE36832689B1A43
:1058CC00AB422BDC94F84320131E226818BF012333
:1058DC00920630D44946384604F14302C0470130A1
:1058EC0023D02368226903F00603042B14BF002580
:1058FC0033684FF0000608BFE56804F11A0408BFCE
:10590C00ED1A54F8123C08BF25EAE5759342C4BF62
:10591C009B1AED18B5421AD1002008E0012352461B
:10592C0049463846C047013003D14FF0FF30BDE83F
:10593C00F0870135C1E73020E11881F843005A1C8B
:10594C0094F845102244023382F84310C2E7012335
:10595C00224649463846C0470130E6D00136D9E7E1
:10596C002DE9FF470F7E9146782F80460C469A46CC
:10597C000C9D01F1430207D8622F0AD8002F00F0CA
:10598C00D580582F00F0C18004F1420584F8427094
:10599C003AE0A7F16303152BF6D801A151F823F0D7
:1059AC00055A0008195A000895590008955900081D
:1059BC009559000895590008195A0008955900087E
:1059CC009559000895590008955900081F5B000867
:1059DC00455A0008D95A00089559000895590008ED
:1059EC00415B000895590008455A00089559000874
:1059FC0095590008E15A00082B681A1D1B682A608B
:105A0C0004F1420584F842300123A0E020682B68A1
:105A1C00070603F10401296001D51E6803E0460660
:105A2C00FBD5B3F90060002E03DA2D23764284F8FF
:105A3C0043300A23594812E02B682068191D29604D
:105A4C00050601D51E6802E04106FBD51E886F2FA6
:105A5C000CBF08230A235148002184F843106568C1
:105A6C00002DA8BF2168A560A4BF21F0040121600E
:105A7C000EB9002D4BD01546B6FBF3F103FB1167A5
:105A8C00C75D05F8017D3746BB420E46F4D9082B9D
:105A9C000BD12368DE0708D5236961689942DEBF04
:105AAC00302305F8013C05F1FF35521B22614B46B2
:105ABC0021464046CDF800A003AAFFF7DFFE0130D7
:105ACC004AD14FF0FF3004B0BDE8F087236843F0B3
